:020000040800F2
:1000000000000320AD1300088F12000891120008B1
:1000100093120008951200089712000800000000D3
:10002000000000000000000000000000991200081D
:100030009B120008000000009D1200089F1200089B
:10004000FD130008FD130008FD130008FD13000850
:10005000FD130008FD130008FD130008FD13000840
:10006000FD130008FD130008FD130008FD13000830
:10007000FD130008FD130008FD130008FD13000820
:10008000FD130008FD130008FD130008FD13000810
:10009000FD130008FD130008FD130008FD13000800
:1000A000FD130008FD130008FD130008FD130008F0
:1000B000FD130008FD130008FD130008FD130008E0
:1000C000FD130008FD130008FD130008FD130008D0
:1000D000FD130008FD130008FD130008FD130008C0
:1000E000FD130008FD130008FD130008FD130008B0
:1000F000FD130008FD130008FD130008FD130008A0
:10010000FD130008FD130008FD130008FD1300088F
:10011000FD130008FD130008FD130008FD1300087F
:10012000FD130008FD130008FD130008FD1300086F
:0C013000FD130008FD130008FD1300087B
:10013C0010B5054C237833B9044B13B10448AFF315
:10014C0000800123237010BD10000020000000006F
:10015C005814000808B5034B1BB103490348AFF30F
:10016C00008008BD00000000140000205814000896
:10017C0038B5104C236805460BB9012038BD00F08A
:10018C0025FE22684FF47A73B3FBF2F3B0FBF3F065
:10019C0000F09CF804460028EFD10F2DEDD8024654
:1001AC0029464FF0FF3000F05DF8034B20461D60F0
:1001BC00E4E700BF0400002008000020094A13688F
:1001CC0043F4807310B50320136000F039F800205D
:1001DC00FFF7CEFF044618B901F052F8204610BDC7
:1001EC000124FBE700400058034A044913680968DE
:1001FC000B441360704700BF2C000020040000204B
:10020C00014B1868704700BF2C000020014B186888
:10021C00704700BF0800002038B50446FFF7F0FF18
:10022C00631C1CBF054B1B68054618BFE418FFF781
:10023C00E7FF401BA042FAD338BD00BF04000020EA
:10024C00074AD36823F4E0631B041B0C43F0BF6321
:10025C00000243F4003300F4E0600343D3607047C2
:10026C0000ED00E0174B70B5DC68C4F30224C4F158
:10027C000705042D04F1040328BF04254FF0FF36B5
:10028C00062B06FA05F38CBF033C002421EA03037A
:10029C00A34006FA04F422EA0404002843EA040307
:1002AC00A8BF00F160404FEA0313BCBF00F00F0081
:1002BC00054ADBB2AABF00F56140135480F8003345
:1002CC0070BD00BF00ED00E014ED00E00138B0F1AE
:1002DC00807F0AD2064B074A5860F02182F823101F
:1002EC000020072298601A6070470120704700BFF9
:1002FC0010E000E000ED00E02DE9F04F554AD1F898
:10030C00008000234FF00F0938FA03F401D1BDE847
:10031C00F08F012404FA03FA1AEA080500F08F8022
:10032C004C6824F0100BBBF1020F11D1DF0800EB6D
:10033C00870703F0070C3E6A4FEA8C0C09FA0CFE97
:10034C0026EA0E0E0E6906FA0CF646EA0E063E6218
:10035C004FEA430E0327066807FA0EF7FF4304F033
:10036C00030C3E400CFA0EFC0BF1FF3B4CEA06066C
:10037C00BBF1010F066011D8866806EA070BCE6840
:10038C0006FA0EFC4CEA0B068660466826EA0A0A58
:10039C00C4F300169E4046EA0A064660C66837401B
:1003AC008E6806FA0EF63743E600C76047D523F091
:1003BC00030707F1804707F5803703F0030CBE688D
:1003CC004FEA8C0C09FA0CFEB0F1904F26EA0E0E97
:1003DC0037D0214EB04236D006F58066B04234D0CC
:1003EC0006F58066B04232D006F58066B04214BF86
:1003FC000726042606FA0CF646EA0E06BE60D2F86C
:10040C008060EF4314F4803F0CBF3E402E43C2F893
:10041C008060D2F8846014F4003F0CBF3E402E4341
:10042C00C2F88460166814F4801F0CBF3E402E4343
:10043C0016605668A40254BF3E402E4356600133EA
:10044C0062E70026D6E70126D4E70226D2E7032688
:10045C00D0E700BF00080058000400480AB18161D1
:10046C00704781627047436931EA030308BF09048E
:10047C0081617047024A136843F4807313607047BC
:10048C0000040058024B186800F4C060704700BFAD
:10049C00000400584FF0B0431868C0F34040704758
:1004AC004FF0B0431868C0F3802070474FF0B04352
:1004BC00D3F89400C0F3400070474FF0B043186875
:1004CC00C0F3400070474FF0B042136823F0F003C4
:1004DC001843106070474FF0B043186800F0F000FC
:1004EC00B02828BFB02070474FF0B042536823F4B7
:1004FC007F4343EA0020506070474FF0B0431868C8
:10050C00C0F3406070470000B0282E4B2E4A98BFB5
:10051C000009F0B58CBFDD6A53F820502B4C4FF01E
:10052C00B04389B0D3F8083103F00F036E4652F88C
:10053C002330B5FBF3F5264BB5FBF3F5FFF7A2FF24
:10054C00074694E80F00103486E80F0094E80F007B
:10055C00B7F5007F08AC04E90F0017D0062D24D99D
:10056C000C2D24D9102D24D900241A4D2B6823F0DE
:10057C00070323432B60FFF743FE06462B6803F06B
:10058C0007039C4217D1002009B0F0BD002356F898
:10059C002320954205D808AA02EB830353F8104C8C
:1005AC00E3E70133042BF2D1DEE70023F3E7012369
:1005BC00F1E70223EFE7FFF723FE801B0228DDD9CA
:1005CC000320E1E7D0140008901400087014000810
:1005DC0040420F0000400058F8B5044608B901200D
:1005EC0080E003689E0629D54FF0B0429368D2682C
:1005FC0013F00C0305D00C2B59D102F00303012B83
:10060C0055D1FFF75AFF10B1E369002BE7D0626AAE
:10061C00FFF761FF8242606A3ED9FFF775FF002841
:10062C00DDD1606AFFF74FFF206AFFF75DFF00F036
:10063C0067FE0020FFF79CFD0028D0D12368DD0762
:10064C0062D42368980700F1AD80236813F0180F6B
:10065C0040F0EE802368590700F186812368590623
:10066C0040F1EB81A36A4FF0B045002B00F0D28132
:10067C00D5F8983043F00103C5F89830FFF7C0FD6A
:10068C000646D5F898309A0700F1D781FFF7B8FDE8
:10069C00801B0228F5D924E0FFF715FF206AFFF72D
:1006AC0023FF606AFFF730FF0028C0D097E7E269AC
:1006BC004FF0B043BAB11A6842F001021A60FFF76A
:1006CC009FFD0546FFF7F9FE30B1606AFFF7FBFEB0
:1006DC00206AFFF709FFB1E7FFF792FD401B0228E4
:1006EC00F0D90320F8BD1A6822F001021A60FFF756
:1006FC0087FD0546FFF7E1FE00289FD0FFF780FD40
:10070C00401B0228F6D9ECE74FF0B0429368D26850
:10071C0003F00C03082B05D00C2B0BD102F00303B8
:10072C00032B07D1FFF7B6FE00288AD06368002B95
:10073C0087D154E76268B2F5803F4FF0B04311D1D6
:10074C001A6842F480321A60FFF75AFD0546FFF72B
:10075C00A1FE00287FF475AFFFF752FD401B642803
:10076C00F5D9BEE7B2F5A02F04D11A6842F4802265
:10077C001A60E5E7196821F480311960196821F4D1
:10078C0080211960002ADFD1FFF73AFD0546FFF7FB
:10079C0081FE00283FF455AFFFF732FD401B642863
:1007AC00F5D99EE74FF0B0429368D26803F00C0382
:1007BC00042B05D00C2B14D102F00303022B10D107
:1007CC00FFF76EFE18B1E368002B3FF408AF4FF053
:1007DC00B0422169536823F0FE4343EA016353603E
:1007EC0033E7E2684FF0B04382B11A6842F480728A
:1007FC001A60FFF705FD0546FFF752FE0028E6D10B
:10080C00FFF7FEFC401B0228F6D96AE71A6822F4AF
:10081C0080721A60FFF7F4FC0546FFF741FE0028D2
:10082C003FF413AFFFF7ECFC401B0228F5D958E757
:10083C0062694FF0B045002A6FD0DA0647D5FFF752
:10084C0035FE58B34FF0B045D5F8943043F004035F
:10085C00C5F89430FFF7D4FC0646D5F894301B0746
:10086C002FD5D5F89430A26923F4706343EA0223A0
:10087C00C5F89430D5F8943023F00103C5F89430C2
:10088C00FFF7BEFC0546FFF711FE00283FF4E2AE71
:10089C00FFF7B6FC401B0228F5D922E7D5F89430B7
:1008AC0043F00103C5F89430FFF7AAFC0546FFF7A7
:1008BC00FDFD0028C6D1FFF7A3FC401B0228F6D98A
:1008CC000FE7FFF79DFC801B0328C6D909E7D5F875
:1008DC00943043F00103C5F89430FFF791FC0646C1
:1008EC00FFF7E4FD98B14FF0B0431D46D3F89420C8
:1008FC0022F00402C3F89420D5F894301F077FF53A
:10090C00A9AEFFF77DFC801B0328F5D9E9E6FFF7BC
:10091C0077FC801B0228E3D9E3E6D5F8943023F06A
:10092C000403C5F89430FFF76BFC0646D5F89430F9
:10093C00180713D4D5F8943023F00103C5F894307C
:10094C00FFF75EFC0546FFF7B1FD00283FF482AED1
:10095C00FFF756FC401B0228F5D9C2E6FFF750FC06
:10096C00801B0328E2D9BCE6754D2B68D9051CD534
:10097C00A368012B4FF0B04525D1D5F8903043F04A
:10098C000103C5F89030FFF73BFC4FF0B04706462B
:10099C0041F28835D7F890309B073FF55FAEFFF7F3
:1009AC002FFC801BA842F5D99BE6FFF763FDFFF7F0
:1009BC0027FC06462B68DA05DAD4FFF721FC801BEE
:1009CC000228F7D98DE6052B06D1D5F8903043F0E7
:1009DC000403C5F89030D0E7D5F8902022F001023E
:1009EC00C5F89020D5F8902022F00402C5F890208C
:1009FC00002BC8D1FFF704FC41F288360746D5F826
:100A0C00903098077FF52AAEFFF7FAFBC01BB04277
:100A1C00F5D966E6D5F8983023F00103C5F898307F
:100A2C00FFF7EEFB0646D5F898309B0705D5FFF788
:100A3C00E7FB801B0228F6D953E6E16A09B90020CE
:100A4C0050E64FF0B0439A6802F00C020C2A50D0DA
:100A5C001A68022922F080721A6033D1FFF7D0FB9A
:100A6C000546FFF74AFD38BBD4E90C314FF0B042D4
:100A7C000B43D068334901400B43E16B0B43216CB2
:100A8C000B43616C0B43A16B43EA0123D3601368E6
:100A9C0043F080731360D36843F08053D360FFF747
:100AAC00AFFB0446FFF729FD0028C8D1FFF7A8FBD0
:100ABC00001B0228F6D914E6FFF7A2FB401B022804
:100ACC00CFD90EE6DA6822F00302DA60DA6822F097
:100ADC00885222F48032DA60FFF792FB0446FFF76B
:100AEC000CFD0028ABD0FFF78BFB001B0228F6D9BE
:100AFC00F7E5D868236B00F003029A427FF46FADE0
:100B0C00626B00F0700393427FF469ADA26BC0F38B
:100B1C00062393427FF463ADE26B00F478139342A7
:100B2C007FF45DAD226C00F0606393427FF457ADAF
:100B3C00636C00F06040C01A18BF0120D2E500BF02
:100B4C00000400588C80C1112DE9F0410D4604467B
:100B5C0010B90120BDE8F081734E336803F0070330
:100B6C008B4216D323689A0727D54FF0B046A2685C
:100B7C00B36823F0F0031343B360FFF741FB074660
:100B8C00B368DB0319D4FFF73BFBC01B0228F7D972
:100B9C0011E0336823F007030B433360FFF730FB9E
:100BAC000746336803F00703AB42DBD0FFF728FBA3
:100BBC00C01B0228F5D90320CCE72368980616D56C
:100BCC004FF0B0466269D6F8083123F0F0031343B6
:100BDC00C6F80831FFF714FB0746D6F8083199031D
:100BEC0005D4FFF70DFBC01B0228F6D9E3E72368F9
:100BFC005A0617D54FF0B046A269D6F8083123F043
:100C0C000F0343EA1213C6F80831FFF7F9FA074647
:100C1C00D6F80831DB0305D4FFF7F2FAC01B022823
:100C2C00F6D9C8E723685E0713D54FF0B046E268E3
:100C3C00B36823F4E0631343B360FFF7E1FA0746AC
:100C4C00B368980305D4FFF7DBFAC01B0228F7D969
:100C5C00B1E72368190714D54FF0B0462269B36881
:100C6C0023F4605343EAC203B360FFF7C9FA0746A3
:100C7C00B3685A0305D4FFF7C3FAC01B0228F7D98F
:100C8C0099E72368DB070DD4274C236803F007038F
:100C9C00AB4235D800F034FBFFF7B8FABDE8F041B1
:100CAC00FFF766BA6368022B1ED1FFF7F3FB00282F
:100CBC003FF44FAF4FF0B0466268B36823F00303C4
:100CCC001343B360FFF79CFA41F288380746B368C8
:100CDC00626803F00C03B3EB820FD5D0FFF790FAE8
:100CEC00C01B4045F3D966E7032B02D1FFF705FC87
:100CFC00DDE713B9FFF7E1FBD9E7FFF7D1FBD6E747
:100D0C00236823F007032B432360FFF779FA064689
:100D1C00236803F00703AB42BCD0FFF771FA801BCA
:100D2C000228F5D947E700BF004000584FF0B04209
:100D3C0008B5936813F00C0307D1FFF7CCFB1F4BDE
:100D4C00C0F3031053F8200008BD042B33D0082B3C
:100D5C0007D113681A4813F4801F1A4B08BF1846A2
:100D6C00F2E7D36803F00303022B22D0032B18D134
:100D7C001368134813F4801F124B18BF03464FF02F
:100D8C00B042D068D168D268C0F306205843C1F392
:100D9C0002130133B0FBF3F0530F0133B0FBF3F04C
:100DAC00D2E7FFF798FB054BC0F3031053F8203044
:100DBC00E5E7054BE3E70448C6E700BFD01400089D
:100DCC0000093D0000127A000024F40008B5FFF77A
:100DDC00ADFF4FF0B043044A9B68C3F3031352F8C2
:100DEC002330B0FBF3F008BD901400084FF0B04373
:100DFC00D3F89000C0F3400070474FF0B0410209A7
:100E0C00D1F8883002F47F22000123EA020300F4B7
:100E1C007F201843C1F8880070474FF0B042136828
:100E2C0043F08063136070474FF0B042136823F0B7
:100E3C008063136070474FF0B0431868C0F3C06014
:100E4C007047F8B5056815F04005044643D0036BB0
:100E5C00B3F5800F15D002D8D3B101253BE0B3F523
:100E6C00000F02D0B3F5400FF7D14FF0B042216B19
:100E7C00D2F8883023F440030B43C2F888300025A5
:100E8C0029E04FF0B042D36843F48033D360ECE7F1
:100E9C00FFF7CAFFFFF7B4F90546FFF7CCFFA0B97F
:100EAC004FF0B0426168136923F4FE4343EA012317
:100EBC0013611369A16823F478130B431361FFF7D3
:100ECC00ACFFFFF79DF90546BAE0FFF799F9401B17
:100EDC000228E2D9032523681A0515D54FF0B04630
:100EEC00236CD6F8907007F44077BB420CD0FFF718
:100EFC00C1FAD6F89030002F40F0AD80226C23F46C
:100F0C0040731343C6F890302368DF0709D54FF0C0
:100F1C00B041A069D1F8882022F003020243C1F845
:100F2C0088209E0709D54FF0B041E069D1F88820A0
:100F3C0022F440620243C1F88820D8060CD5A66A78
:100F4C004FF0B040310CD0F88820090422EA01029D
:100F5C0042EA0642C0F8882099060CD5E66A4FF0A2
:100F6C00B040310CD0F88820090422EA010242EA90
:100F7C000642C0F888205A0702D5206AFFF73DFFC9
:100F8C0023681B0702D5606AFFF737FF2368DF056C
:100F9C0010D54FF0B042616BD2F8883023F040632B
:100FAC000B43B1F1006FC2F888307CD1D36843F0A9
:100FBC008073D3602268960509D54FF0B041A06BC1
:100FCC00D1F8883023F040430343C1F888305005F2
:100FDC0011D54FF0B042E16BD2F8883023F040537A
:100FEC000B43B1F1005FC2F8883040F09380D368B6
:100FFC0043F48033D3602268D10409D54FF0B0415B
:10100C00606CD1F8943023F440430343C1F894301E
:10101C0093040DD54FF0B042E16C536A23F03003CA
:10102C000B435362536AA16C23F003030B435362CB
:10103C002846F8BDFFF7E4F8401B02283FF64AAFFC
:10104C00FFF7F9FE0128F5D14FF0B0426169136941
:10105C000B43136109E7D6F8902042F48032C6F8AE
:10106C009020D6F8902022F48032C6F89020226C82
:10107C0023F440731343C6F89030D6F89030DB0756
:10108C007FF542AFFFF7BCF841F288370646FFF711
:10109C00ADFE01283FF438AFFFF7B2F8801BB84221
:1010AC00F5D9032530E7B1F1806F83D1FFF7BCFE92
:1010BC00FFF7A6F80646FFF7BEFEA0B94FF0B04208
:1010CC006168136923F4FE4343EA01231361136936
:1010DC00E16823F060630B431361FFF79EFEFFF79B
:1010EC008FF806460BE0FFF78BF8801B0228E2D93D
:1010FC0003255FE7FFF784F8801B0228F8D8FFF779
:10110C009AFE0128F6D14FF0B042616913690B4386
:10111C0013614FE7B1F1805F7FF46DAFFFF784FE91
:10112C00FFF76EF80646FFF786FEA0B94FF0B04207
:10113C006168136923F4FE4343EA012313611369C5
:10114C00216923F060430B431361FFF766FEFFF741
:10115C0057F806460BE0FFF753F8801B0228E2D93C
:10116C00032548E7FFF74CF8801B0228F8D8FFF757
:10117C0062FE0128F6D14FF0B042616913690B434E
:10118C00136138E710B5AEB04422002109A800F075
:10119C0055F91C22002101A800F050F90021502221
:1011AC001AA800F04BF9184A136823F4C06343F4EF
:1011BC0000731360136803F4C0630093009B222335
:1011CC0008934FF480730B9301230F934023002457
:1011DC000C9308A860231193FFF7FEF96F232146A7
:1011EC0001A8CDE90134CDE90344CDE905440794C8
:1011FC00FFF7AAFC4FF400531AA81A93CDE92C441C
:10120C00FFF71FFE2EB010BD0004005800B589B0CA
:10121C00FEF7D4FFFFF7B6FF1422002103A800F05D
:10122C000DF94FF0B0432021DA6C1448134C42F006
:10123C000102DA64DA6C02F001020292029ADA6CB0
:10124C0042F00202DA64DB6C03F002030193002229
:10125C00019BFFF703F920220123CDE9032303A906
:10126C0000230648CDE90533FFF746F82046202138
:10127C00FFF7F9F8FA20FEF7CFFFF7E70004004874
:10128C0070477047FEE7FEE7FEE7FEE770477047E2
:10129C007047FEF7A9BF0000174B00219960D3F8E7
:1012AC00882042F47002C3F888204FF0B0436FF4EA
:1012BC00827C1A6842F001021A604FF4E0229A60B4
:1012CC001868A2F1A262624402401A60D3F894201A
:1012DC0022F00502C3F89420D3F8982022F00102E2
:1012EC00C3F89820054ADA601A611A6822F4802241
:1012FC001A609961704700BF00ED00E000100422F5
:10130C004FF0B040214A03688168C3F3031301F026
:10131C000C01082910B552F823401D4A12D00C2993
:10132C0012D0042930D11B4B13604FF0B0431A4834
:10133C0099681368C1F3031150F82110B3FBF1F352
:10134C00136010BD154BEFE7C168C36801F00301D2
:10135C00C3F30213022903F101030ED10D49B1FBB2
:10136C00F3F34FF0B041C868C968C0F30620490FC9
:10137C0043430131B3FBF1F3D6E7032901D107490C
:10138C00EDE7B4FBF3F3ECE71460CEE7D014000800
:10139C000C0000200024F4009014000800127A00C5
:1013AC000D4885460D480E490E4A002302E0D458DC
:1013BC00C4500433C4188C42F9D30B4A0B4C002391
:1013CC0001E013600432A242FBD3FFF765FF00F08B
:1013DC0011F8FFF71BFFFEE70000032004000020BC
:1013EC00100000201815000810000020300000200C
:1013FC00FEE7000070B50D4E0D4CA41BA41000258B
:10140C00A54209D10B4E0C4C00F020F8A41BA410E3
:10141C000025A54205D170BD56F8253098470135F9
:10142C00EEE756F8253098470135F2E7101500081D
:10143C001015000810150008141500080244034686
:10144C00934200D1704703F8011BF9E7F8B500BFD0
:10145C00F8BC08BC9E467047F8B500BFF8BC08BC89
:04146C009E467047E1
:1014700012000000240000003600000040000000C0
:101480000000000001000000020000000300000056
:101490000100000003000000050000000100000042
:1014A00001000000060000000A000000200000000B
:1014B000020000000400000008000000100000000E
:1014C0004000000080000000000100000002000059
:1014D000A0860100400D0300801A060000350C00B4
:1014E00040420F0080841E0000093D0000127A0077
:1014F0000024F40000366E010048E801006CDC02B4
:1015000000000000000000000000000000000000DB
:04151000610100086D
:041514003D0100088D
:0C151800010000001000000000093D0070
:04000005080013AD2F
:00000001FF
